:100000000C942A000C948E010C943C000C943C003F
:100010000C943C000C943C000C943C000C943C0070
:100020000C943C000C943C000C943C000C943C0060
:100030000C943C000C943C000C943C000C943C0050
:100040000C943C000C943C000C943C000C943C0040
:100050000C943C0011241FBECFE5D8E0DEBFCDBF1D
:1000600020E0A0E6B0E001C01D92A536B207E1F79E
:100070000E943E000C944C0A0C940000CF93DF9336
:100080000F92CDB7DEB761E083E40E94C30260E067
:1000900083E40E94C30281E089830E949E07019746
:1000A00009F419820E94AA07019709F419820E9493
:1000B000B607019709F419820E94D507019709F440
:1000C00019820E94E007019709F419820E94E9074A
:1000D000892B09F019820E94F207019709F419820D
:1000E0000E94FC07019709F419820E9448070197B2
:1000F00009F419820E945307019709F419820E949A
:100100007207019709F419820E947D07019709F48B
:1001100019820E948807019709F419820E949307A7
:10012000019709F419828981882329F061E083E429
:100130000E94E102F8CF60E083E40E94E102F3CF85
:10014000CF93DF93CDB7DEB781E090E0909361006D
:100150008093600063E084E40E94E1020000DF918C
:10016000CF910895CF93DF93CDB7DEB710926100A2
:100170001092600063E084E40E94FF020000DF91BF
:10018000CF910895CF93DF93CDB7DEB78091620012
:1001900090916300019683709927909363008093F8
:1001A00062000000DF91CF910895CF93DF93CDB728
:1001B000DEB760E081E40E94C30261E081E40E9456
:1001C000C30262E081E40E94C30260E082E40E9414
:1001D000C30261E082E40E94C30262E082E40E9402
:1001E000C30263E084E40E94C30262E084E40E94EC
:1001F00080020E94A70663E080E00E94BB06109286
:1002000063001092620010926100109260001092E0
:1002100064000000DF91CF910895CF93DF9300D069
:10022000CDB7DEB780916200909163008330910575
:1002300039F18430910508F054C082309105D9F12C
:100240008330910508F04DC0009719F00197C1F077
:1002500048C060E081E40E94E10262E082E40E9422
:10026000E10260E070E48CE995E40E94CF0160E077
:1002700081E40E94FF0262E082E40E94FF0232C039
:100280001A82198213C061E081E40E941D0361E0BB
:1002900082E40E941D0360E070E08AEF93E40E9414
:1002A000CF0189819A8101969A83898389819A8174
:1002B0000A974CF317C062E081E40E94E10260E01B
:1002C00082E40E94E10260E070E48CE995E40E941F
:1002D000CF0162E081E40E94FF0260E082E40E94BC
:1002E000FF02000080916400882381F48091600007
:1002F00090916100019741F48091620090916300B8
:10030000029711F40E94B2000E94C2001092640091
:1003100000000F900F90DF91CF9108951F920F92E0
:100320000FB60F9211242F933F934F935F936F93C8
:100330007F938F939F93AF93BF93EF93FF93CF934D
:10034000DF93CDB7DEB78091600090916100019797
:1003500091F08091620090916300029731F081E00A
:1003600090E090936300809362000E94A00081E07F
:100370008093640001C00000DF91CF91FF91EF9165
:10038000BF91AF919F918F917F916F915F914F91AD
:100390003F912F910F900FBE0F901F901895CF9304
:1003A000DF93CDB7DEB7AE970FB6F894DEBF0FBEC2
:1003B000CDBF6F83788789879A872FE632E143E83C
:1003C00053E46F81788589859A850E94A9086F8B8F
:1003D000788F898F9A8F2F89388D498D5A8D2B83ED
:1003E0003C834D835E836B817C818D819E810E94E5
:1003F0001B096B8F7C8F8D8F9E8F8B8D9C8D0196B3
:100400009A83898389819A819C0140E050E02F8FF3
:1004100038A349A35AA36F8D78A189A19AA10E94FC
:1004200051096B877C878D879E872B813C814D810D
:100430005E816B857C858D859E850E943C086BA3C3
:100440007CA38DA39EA38BA19CA1ADA1BEA18F87F0
:10045000988BA98BBA8B20E030E040E853E46F859D
:10046000788989899A890E94DF096FA378A789A76B
:100470009AA72FA138A549A55AA52B8B3C8B4D8B4C
:100480005E8B6B897C898D899E890E9422096BA76E
:100490007CA78DA79EA78BA5482F65E080E00E94D2
:1004A000700618C0000088E590E0DC018C91882F70
:1004B00090E081709927892B21F480916400882332
:1004C00091F388E590E0FC01208188E590E02160CF
:1004D000DC012C9389819A819C01215031093A8356
:1004E0002983892BF9F680E00E9491060000AE96E0
:1004F0000FB6F894DEBF0FBECDBFDF91CF91089548
:10050000CF93DF9300D000D0CDB7DEB78B836C8361
:1005100040E06C818B810E943A039A83898321E0B9
:1005200089819A81892B09F420E0822F90E00F9035
:100530000F900F900F90DF91CF910895CF93DF939D
:1005400000D000D000D0CDB7DEB78B836C835E8344
:100550004D838D819E81AC016C818B810E9442050F
:100560009A83898321E089819A81892B09F420E08B
:10057000822F90E026960FB6F894DEBF0FBECDBF57
:10058000DF91CF910895CF93DF9300D000D0CDB706
:10059000DEB78B836C8341E06C818B810E943A03D0
:1005A0009A83898321E089819A81892B09F420E04B
:1005B000822F90E00F900F900F900F90DF91CF91CE
:1005C0000895CF93DF9300D000D0CDB7DEB78B83F3
:1005D0006C8341E06C818B810E943E049A83898305
:1005E00021E089819A81892B09F420E0822F90E013
:1005F0000F900F900F900F90DF91CF910895CF93B0
:10060000DF9300D000D0CDB7DEB78B836C8340E0A2
:100610006C818B810E943E049A83898321E08981C9
:100620009A81892B09F420E0822F90E00F900F909F
:100630000F900F90DF91CF910895CF93DF9300D06B
:1006400000D0CDB7DEB78B836C836C818B810E9429
:10065000F0059A83898321E089819A81892B09F4A5
:1006600020E0822F90E00F900F900F900F90DF917D
:10067000CF910895CF93DF9300D00F92CDB7DEB71F
:1006800089836A834B838981882F90E08434910524
:1006900009F4B5C0853491050CF0E7C083349105A9
:1006A00009F477C0843491050CF0DFC081349105E2
:1006B00021F082349105B9F1D8C08B818823B9F437
:1006C0008AE390E0FC018081482F8A81282F30E066
:1006D00081E090E002C0880F991F2A95E2F780958B
:1006E000242F28238AE390E0FC012083BFC08B8164
:1006F0008130B1F48AE390E0FC018081482F8A8147
:10070000282F30E081E090E002C0880F991F2A95E1
:10071000E2F7242F282B8AE390E0FC012083A6C077
:1007200081E090E0A5C08B818823B9F487E390E055
:10073000FC018081482F8A81282F30E081E090E001
:1007400002C0880F991F2A95E2F78095242F28234D
:1007500087E390E0FC01208389C08B818130B1F474
:1007600087E390E0FC018081482F8A81282F30E0C8
:1007700081E090E002C0880F991F2A95E2F7242FAC
:10078000282B87E390E0FC01208370C081E090E09B
:100790006FC08B818823B9F484E390E0FC018081F1
:1007A000482F8A81282F30E081E090E002C0880F36
:1007B000991F2A95E2F78095242F282384E390E05F
:1007C000FC01208353C08B818130B1F484E390E03D
:1007D000FC018081482F8A81282F30E081E090E061
:1007E00002C0880F991F2A95E2F7242F282B84E353
:1007F00090E0FC0120833AC081E090E039C08B8119
:100800008823B9F481E390E0FC018081482F8A813C
:10081000282F30E081E090E002C0880F991F2A95D0
:10082000E2F78095242F282381E390E0FC012083C8
:100830001CC08B818130B1F481E390E0FC018081A8
:10084000482F8A81282F30E081E090E002C0880F95
:10085000991F2A95E2F7242F282B81E390E0FC01D1
:10086000208303C081E090E003C0000080E090E0BE
:100870000F900F900F90DF91CF910895CF93DF935A
:1008800000D00F92CDB7DEB789836A834B8389810D
:10089000882F90E08434910509F4B5C08534910522
:1008A0000CF0E7C08334910509F477C084349105D6
:1008B0000CF0DFC08134910521F082349105B9F14B
:1008C000D8C08B818823B9F48BE390E0FC01808150
:1008D000482F8A81282F30E081E090E002C0880F05
:1008E000991F2A95E2F78095242F28238BE390E027
:1008F000FC012083BFC08B818130B1F48BE390E099
:10090000FC018081482F8A81282F30E081E090E02F
:1009100002C0880F991F2A95E2F7242F282B8BE31A
:1009200090E0FC012083A6C081E090E0A5C08B810F
:100930008823B9F488E390E0FC018081482F8A8104
:10094000282F30E081E090E002C0880F991F2A959F
:10095000E2F78095242F282388E390E0FC01208390
:1009600089C08B818130B1F488E390E0FC01808103
:10097000482F8A81282F30E081E090E002C0880F64
:10098000991F2A95E2F7242F282B88E390E0FC0199
:10099000208370C081E090E06FC08B818823B9F420
:1009A00085E390E0FC018081482F8A81282F30E088
:1009B00081E090E002C0880F991F2A95E2F78095A8
:1009C000242F282385E390E0FC01208353C08B81F2
:1009D0008130B1F485E390E0FC018081482F8A8169
:1009E000282F30E081E090E002C0880F991F2A95FF
:1009F000E2F7242F282B85E390E0FC0120833AC006
:100A000081E090E039C08B818823B9F482E390E0E3
:100A1000FC018081482F8A81282F30E081E090E01E
:100A200002C0880F991F2A95E2F78095242F28236A
:100A300082E390E0FC0120831CC08B818130B1F403
:100A400082E390E0FC018081482F8A81282F30E0EA
:100A500081E090E002C0880F991F2A95E2F7242FC9
:100A6000282B82E390E0FC01208303C081E090E02A
:100A700003C0000080E090E00F900F900F90DF9196
:100A8000CF910895CF93DF9300D000D0CDB7DEB7DC
:100A900089836A835C834B838981882F90E08434C7
:100AA000910509F473C0853491050CF08FC083342F
:100AB000910509F44BC0843491050CF087C0813452
:100AC000910521F08234910509F180C089E390E01D
:100AD000FC018081282F30E08A81482F50E081E09E
:100AE00090E002C0880F991F4A95E2F78223932372
:100AF0002A81222F30E002C0959587952A95E2F74A
:100B0000282F8B819C81FC01208361C086E390E0CB
:100B1000FC018081282F30E08A81482F50E081E05D
:100B200090E002C0880F991F4A95E2F78223932331
:100B30002A81222F30E002C0959587952A95E2F709
:100B4000282F8B819C81FC01208341C083E390E0AE
:100B5000FC018081282F30E08A81482F50E081E01D
:100B600090E002C0880F991F4A95E2F782239323F1
:100B70002A81222F30E002C0959587952A95E2F7C9
:100B8000282F8B819C81FC01208321C080E390E091
:100B9000FC018081282F30E08A81482F50E081E0DD
:100BA00090E002C0880F991F4A95E2F782239323B1
:100BB0002A81222F30E002C0959587952A95E2F789
:100BC000282F8B819C81FC01208301C0000080E0E4
:100BD00090E00F900F900F900F90DF91CF910895BC
:100BE000CF93DF9300D0CDB7DEB789836A83898145
:100BF000882F90E08434910509F454C08534910520
:100C00000CF066C083349105B9F1843491050CF081
:100C10005FC08134910521F082349105B9F058C04C
:100C20008BE390E0FC018081482F8A81282F30E0FF
:100C300081E090E002C0880F991F2A95E2F7242FE7
:100C400028278BE390E0FC01208343C088E390E0F9
:100C5000FC018081482F8A81282F30E081E090E0DC
:100C600002C0880F991F2A95E2F7242F282788E3CE
:100C700090E0FC0120832DC085E390E0FC018081A1
:100C8000482F8A81282F30E081E090E002C0880F51
:100C9000991F2A95E2F7242F282785E390E0FC018D
:100CA000208317C082E390E0FC018081482F8A8175
:100CB000282F30E081E090E002C0880F991F2A952C
:100CC000E2F7242F282782E390E0FC01208301C073
:100CD000000080E090E00F900F90DF91CF91089599
:100CE000CF93DF9300D00F92CDB7DEB789836A83AD
:100CF0004B838981882F90E0892B59F482E590E01D
:100D00002B81FC01208383E590E02A81FC01208374
:100D1000000080E090E00F900F900F90DF91CF9156
:100D20000895CF93DF930F92CDB7DEB78983898182
:100D3000882F90E0892B29F483E590E0FC01108254
:100D4000000080E090E00F90DF91CF910895CF9365
:100D5000DF93CDB7DEB7789480E090E0DF91CF915C
:100D60000895CF93DF93CDB7DEB7F89480E090E09D
:100D7000DF91CF910895CF93DF9300D0CDB7DEB749
:100D800089836A838981823061F48A81882319F09A
:100D90008A81813019F481E090E03CC08A818170C1
:100DA0008A8385E590E0FC01308185E590E02A8129
:100DB000232BFC0120838981882F90E082309105CC
:100DC000E1F0833091051CF5009719F0019759F077
:100DD0001EC08BE590E0FC0120818BE590E0206453
:100DE000FC01208315C08BE590E0FC0120818BE5A0
:100DF00090E02068FC0120830BC08BE590E0FC01B3
:100E000020818BE590E02062FC01208301C000007E
:100E100080E090E00F900F90DF91CF910895CF93F5
:100E2000DF930F92CDB7DEB789838981882F90E059
:100E300082309105E1F0833091051CF5009719F09F
:100E4000019759F01EC08BE590E0FC0120818BE5F5
:100E500090E02F7BFC01208315C08BE590E0FC0126
:100E600020818BE590E02F77FC0120830BC08BE580
:100E700090E0FC0120818BE590E02F7DFC01208338
:100E800001C0000080E090E00F90DF91CF910895C5
:100E9000CF93DF93CDB7DEB767E081E40E94800295
:100EA000DF91CF910895CF93DF9300D00F92CDB70C
:100EB000DEB782E08B83CE010396AC0167E081E46C
:100EC0000E949E029A8389838B81823018F081E090
:100ED00090E002C089819A810F900F900F90DF916E
:100EE000CF910895CF93DF93CDB7DEB767E081E46C
:100EF0000E94C302DF91CF910895CF93DF93CDB7C6
:100F0000DEB767E081E40E94E102DF91CF910895AE
:100F1000CF93DF93CDB7DEB767E081E40E94FF0295
:100F2000DF91CF910895CF93DF93CDB7DEB767E020
:100F300081E40E941D03DF91CF910895CF93DF9349
:100F4000CDB7DEB741E067E081E40E943A03DF916C
:100F5000CF910895CF93DF93CDB7DEB741E067E03F
:100F600081E40E943E04DF91CF910895CF93DF93F7
:100F700000D00F92CDB7DEB782E08B83CE0103960F
:100F8000AC0167E081E40E9442059A8389838B81EA
:100F9000823018F081E090E002C089819A810F9040
:100FA0000F900F90DF91CF910895CF93DF93CDB73E
:100FB000DEB767E081E40E94F005DF91CF910895EC
:100FC000CF93DF93CDB7DEB70E94A706DF91CF9115
:100FD0000895CF93DF93CDB7DEB70E94B106DF91BE
:100FE000CF910895CF93DF93CDB7DEB780E00E9415
:100FF0000F07DF91CF910895CF93DF9300D0CDB746
:10100000DEB763E080E00E94BB069A838983898112
:101010009A81892B19F081E090E029C060E082E09C
:101020000E94BB069A83898389819A81019719F46A
:1010300081E090E01CC061E082E00E94BB069A83E0
:10104000898389819A81019719F081E090E00FC02E
:1010500061E081E00E94BB069A83898389819A813D
:10106000892B19F081E090E002C080E090E00F90C1
:101070000F90DF91CF9108955058BB27AA270E9467
:1010800054080C94A5090E94970938F00E949E0903
:1010900020F039F49F3F19F426F40C9494090EF4CF
:1010A000E095E7FB0C948E09E92F0E94B60958F3EE
:1010B000BA17620773078407950720F079F4A6F53D
:1010C0000C94D8090EF4E0950B2EBA2FA02D0B012D
:1010D000B90190010C01CA01A0011124FF27591B7D
:1010E00099F0593F50F4503E68F11A16F040A22F83
:1010F000232F342F4427585FF3CF469537952795F4
:10110000A795F0405395C9F77EF41F16BA0B620BF2
:10111000730B840BBAF09150A1F0FF0FBB1F661F39
:10112000771F881FC2F70EC0BA0F621F731F841F7C
:1011300048F4879577956795B795F7959E3F08F0A2
:10114000B0CF9395880F08F09927EE0F9795879564
:1011500008950E94BD080C94A5090E949E0958F0AC
:101160000E94970940F029F45F3F29F00C948E0902
:1011700051110C94D9090C9494090E94B60968F392
:101180009923B1F3552391F3951B550BBB27AA2740
:1011900062177307840738F09F5F5F4F220F331F7A
:1011A000441FAA1FA9F335D00E2E3AF0E0E832D042
:1011B00091505040E695001CCAF72BD0FE2F29D045
:1011C000660F771F881FBB1F261737074807AB0717
:1011D000B0E809F0BB0B802DBF01FF2793585F4F8C
:1011E0003AF09E3F510578F00C948E090C94D90981
:1011F0005F3FE4F3983ED4F3869577956795B7956E
:10120000F7959F5FC9F7880F911D9695879597F978
:101210000895E1E0660F771F881FBB1F62177307F1
:101220008407BA0720F0621B730B840BBA0BEE1F06
:1012300088F7E09508950E9422096894B1110C94F2
:10124000D90908950E94BE0988F09F5798F0B92FD8
:101250009927B751B0F0E1F0660F771F881F991FEB
:101260001AF0BA95C9F714C0B13091F00E94D809AC
:10127000B1E008950C94D809672F782F8827B85FBC
:1012800039F0B93FCCF3869577956795B395D9F743
:101290003EF490958095709561957F4F8F4F9F4F4D
:1012A0000895E89409C097FB3EF490958095709559
:1012B00061957F4F8F4F9F4F9923A9F0F92F96E9A2
:1012C000BB279395F695879577956795B795F11117
:1012D000F8CFFAF4BB0F11F460FF1BC06F5F7F4FB4
:1012E0008F4F9F4F16C0882311F096E911C07723C6
:1012F00021F09EE8872F762F05C0662371F096E8CF
:10130000862F70E060E02AF09A95660F771F881F9D
:10131000DAF7880F9695879597F9089597F99F675B
:1013200080E870E060E008959FEF80EC089500246D
:101330000A941616170618060906089500240A943A
:1013400012161306140605060895092E0394000CC0
:1013500011F4882352F0BB0F40F4BF2B11F460FF4F
:1013600004C06F5F7F4F8F4F9F4F089557FD905878
:10137000440F551F59F05F3F71F04795880F97FB59
:10138000991F61F09F3F79F0879508951216130613
:101390001406551FF2CF4695F1DF08C01616170642
:1013A0001806991FF1CF8695710561050894089577
:1013B000E894BB2766277727CB0197F908950E9409
:1013C000F2090C94A5090E94970938F00E949E0921
:1013D00020F0952311F00C948E090C94940911249B
:1013E0000C94D9090E94B60970F3959FC1F3950F2B
:1013F00050E0551F629FF001729FBB27F00DB11D99
:10140000639FAA27F00DB11DAA1F649F6627B00D28
:10141000A11D661F829F2227B00DA11D621F739F11
:10142000B00DA11D621F839FA00D611D221F749F1F
:101430003327A00D611D231F849F600D211D822F66
:10144000762F6A2F11249F5750409AF0F1F088238D
:101450004AF0EE0FFF1FBB1F661F771F881F9150BA
:101460005040A9F79E3F510580F00C948E090C94D2
:10147000D9095F3FE4F3983ED4F386957795679555
:10148000B795F795E7959F5FC1F7FE2B880F911DE4
:0C1490009695879597F90895F894FFCF82
:00000001FF
